{
  "_format": "hh-sol-artifact-1",
  "contractName": "GtaERC20",
  "sourceName": "contracts/GtaERC20.sol",
  "abi": [
    {
      "inputs": [
        {
          "internalType": "address",
          "name": "initialAdmin",
          "type": "address"
        },
        {
          "internalType": "uint256",
          "name": "initialBuyFeeBps",
          "type": "uint256"
        },
        {
          "internalType": "uint256",
          "name": "initialSellFeeBps",
          "type": "uint256"
        },
        {
          "internalType": "address[]",
          "name": "initialRecipients",
          "type": "address[]"
        },
        {
          "internalType": "uint256[]",
          "name": "initialFeeSplitsBps",
          "type": "uint256[]"
        }
      ],
      "stateMutability": "nonpayable",
      "type": "constructor"
    },
    {
      "inputs": [],
      "name": "AccessControlBadConfirmation",
      "type": "error"
    },
    {
      "inputs": [
        {
          "internalType": "address",
          "name": "account",
          "type": "address"
        },
        {
          "internalType": "bytes32",
          "name": "neededRole",
          "type": "bytes32"
        }
      ],
      "name": "AccessControlUnauthorizedAccount",
      "type": "error"
    },
    {
      "inputs": [],
      "name": "CheckpointUnorderedInsertion",
      "type": "error"
    },
    {
      "inputs": [],
      "name": "ECDSAInvalidSignature",
      "type": "error"
    },
    {
      "inputs": [
        {
          "internalType": "uint256",
          "name": "length",
          "type": "uint256"
        }
      ],
      "name": "ECDSAInvalidSignatureLength",
      "type": "error"
    },
    {
      "inputs": [
        {
          "internalType": "bytes32",
          "name": "s",
          "type": "bytes32"
        }
      ],
      "name": "ECDSAInvalidSignatureS",
      "type": "error"
    },
    {
      "inputs": [
        {
          "internalType": "uint256",
          "name": "increasedSupply",
          "type": "uint256"
        },
        {
          "internalType": "uint256",
          "name": "cap",
          "type": "uint256"
        }
      ],
      "name": "ERC20ExceededSafeSupply",
      "type": "error"
    },
    {
      "inputs": [
        {
          "internalType": "address",
          "name": "spender",
          "type": "address"
        },
        {
          "internalType": "uint256",
          "name": "allowance",
          "type": "uint256"
        },
        {
          "internalType": "uint256",
          "name": "needed",
          "type": "uint256"
        }
      ],
      "name": "ERC20InsufficientAllowance",
      "type": "error"
    },
    {
      "inputs": [
        {
          "internalType": "address",
          "name": "sender",
          "type": "address"
        },
        {
          "internalType": "uint256",
          "name": "balance",
          "type": "uint256"
        },
        {
          "internalType": "uint256",
          "name": "needed",
          "type": "uint256"
        }
      ],
      "name": "ERC20InsufficientBalance",
      "type": "error"
    },
    {
      "inputs": [
        {
          "internalType": "address",
          "name": "approver",
          "type": "address"
        }
      ],
      "name": "ERC20InvalidApprover",
      "type": "error"
    },
    {
      "inputs": [
        {
          "internalType": "address",
          "name": "receiver",
          "type": "address"
        }
      ],
      "name": "ERC20InvalidReceiver",
      "type": "error"
    },
    {
      "inputs": [
        {
          "internalType": "address",
          "name": "sender",
          "type": "address"
        }
      ],
      "name": "ERC20InvalidSender",
      "type": "error"
    },
    {
      "inputs": [
        {
          "internalType": "address",
          "name": "spender",
          "type": "address"
        }
      ],
      "name": "ERC20InvalidSpender",
      "type": "error"
    },
    {
      "inputs": [
        {
          "internalType": "uint256",
          "name": "deadline",
          "type": "uint256"
        }
      ],
      "name": "ERC2612ExpiredSignature",
      "type": "error"
    },
    {
      "inputs": [
        {
          "internalType": "address",
          "name": "signer",
          "type": "address"
        },
        {
          "internalType": "address",
          "name": "owner",
          "type": "address"
        }
      ],
      "name": "ERC2612InvalidSigner",
      "type": "error"
    },
    {
      "inputs": [
        {
          "internalType": "uint256",
          "name": "timepoint",
          "type": "uint256"
        },
        {
          "internalType": "uint48",
          "name": "clock",
          "type": "uint48"
        }
      ],
      "name": "ERC5805FutureLookup",
      "type": "error"
    },
    {
      "inputs": [],
      "name": "ERC6372InconsistentClock",
      "type": "error"
    },
    {
      "inputs": [
        {
          "internalType": "uint256",
          "name": "maxLength",
          "type": "uint256"
        },
        {
          "internalType": "uint256",
          "name": "actualLength",
          "type": "uint256"
        }
      ],
      "name": "ExceededMaxLength",
      "type": "error"
    },
    {
      "inputs": [
        {
          "internalType": "address",
          "name": "account",
          "type": "address"
        },
        {
          "internalType": "uint256",
          "name": "currentNonce",
          "type": "uint256"
        }
      ],
      "name": "InvalidAccountNonce",
      "type": "error"
    },
    {
      "inputs": [
        {
          "internalType": "address",
          "name": "",
          "type": "address"
        }
      ],
      "name": "InvalidAdmin",
      "type": "error"
    },
    {
      "inputs": [
        {
          "internalType": "uint256",
          "name": "",
          "type": "uint256"
        }
      ],
      "name": "InvalidFeeBps",
      "type": "error"
    },
    {
      "inputs": [
        {
          "internalType": "address",
          "name": "",
          "type": "address"
        }
      ],
      "name": "InvalidFeeRecipient",
      "type": "error"
    },
    {
      "inputs": [
        {
          "internalType": "uint256",
          "name": "",
          "type": "uint256"
        }
      ],
      "name": "InvalidFeeSplitBps",
      "type": "error"
    },
    {
      "inputs": [
        {
          "internalType": "address",
          "name": "",
          "type": "address"
        }
      ],
      "name": "InvalidLPAddress",
      "type": "error"
    },
    {
      "inputs": [],
      "name": "InvalidShortString",
      "type": "error"
    },
    {
      "inputs": [
        {
          "internalType": "uint256",
          "name": "minLength",
          "type": "uint256"
        }
      ],
      "name": "MinLength",
      "type": "error"
    },
    {
      "inputs": [
        {
          "internalType": "uint256",
          "name": "length1",
          "type": "uint256"
        },
        {
          "internalType": "uint256",
          "name": "length2",
          "type": "uint256"
        }
      ],
      "name": "MismatchingArrayLengths",
      "type": "error"
    },
    {
      "inputs": [
        {
          "internalType": "uint8",
          "name": "bits",
          "type": "uint8"
        },
        {
          "internalType": "uint256",
          "name": "value",
          "type": "uint256"
        }
      ],
      "name": "SafeCastOverflowedUintDowncast",
      "type": "error"
    },
    {
      "inputs": [
        {
          "internalType": "string",
          "name": "str",
          "type": "string"
        }
      ],
      "name": "StringTooLong",
      "type": "error"
    },
    {
      "inputs": [
        {
          "internalType": "uint256",
          "name": "expiry",
          "type": "uint256"
        }
      ],
      "name": "VotesExpiredSignature",
      "type": "error"
    },
    {
      "anonymous": false,
      "inputs": [
        {
          "indexed": true,
          "internalType": "address",
          "name": "owner",
          "type": "address"
        },
        {
          "indexed": true,
          "internalType": "address",
          "name": "spender",
          "type": "address"
        },
        {
          "indexed": false,
          "internalType": "uint256",
          "name": "value",
          "type": "uint256"
        }
      ],
      "name": "Approval",
      "type": "event"
    },
    {
      "anonymous": false,
      "inputs": [
        {
          "indexed": true,
          "internalType": "address",
          "name": "account",
          "type": "address"
        },
        {
          "indexed": false,
          "internalType": "uint256",
          "name": "amount",
          "type": "uint256"
        }
      ],
      "name": "Burn",
      "type": "event"
    },
    {
      "anonymous": false,
      "inputs": [
        {
          "indexed": true,
          "internalType": "address",
          "name": "delegator",
          "type": "address"
        },
        {
          "indexed": true,
          "internalType": "address",
          "name": "fromDelegate",
          "type": "address"
        },
        {
          "indexed": true,
          "internalType": "address",
          "name": "toDelegate",
          "type": "address"
        }
      ],
      "name": "DelegateChanged",
      "type": "event"
    },
    {
      "anonymous": false,
      "inputs": [
        {
          "indexed": true,
          "internalType": "address",
          "name": "delegate",
          "type": "address"
        },
        {
          "indexed": false,
          "internalType": "uint256",
          "name": "previousVotes",
          "type": "uint256"
        },
        {
          "indexed": false,
          "internalType": "uint256",
          "name": "newVotes",
          "type": "uint256"
        }
      ],
      "name": "DelegateVotesChanged",
      "type": "event"
    },
    {
      "anonymous": false,
      "inputs": [],
      "name": "EIP712DomainChanged",
      "type": "event"
    },
    {
      "anonymous": false,
      "inputs": [
        {
          "indexed": true,
          "internalType": "address",
          "name": "from",
          "type": "address"
        },
        {
          "indexed": true,
          "internalType": "address",
          "name": "to",
          "type": "address"
        },
        {
          "indexed": false,
          "internalType": "uint256",
          "name": "amount",
          "type": "uint256"
        }
      ],
      "name": "FeeDistributed",
      "type": "event"
    },
    {
      "anonymous": false,
      "inputs": [
        {
          "indexed": true,
          "internalType": "bytes32",
          "name": "role",
          "type": "bytes32"
        },
        {
          "indexed": true,
          "internalType": "bytes32",
          "name": "previousAdminRole",
          "type": "bytes32"
        },
        {
          "indexed": true,
          "internalType": "bytes32",
          "name": "newAdminRole",
          "type": "bytes32"
        }
      ],
      "name": "RoleAdminChanged",
      "type": "event"
    },
    {
      "anonymous": false,
      "inputs": [
        {
          "indexed": true,
          "internalType": "bytes32",
          "name": "role",
          "type": "bytes32"
        },
        {
          "indexed": true,
          "internalType": "address",
          "name": "account",
          "type": "address"
        },
        {
          "indexed": true,
          "internalType": "address",
          "name": "sender",
          "type": "address"
        }
      ],
      "name": "RoleGranted",
      "type": "event"
    },
    {
      "anonymous": false,
      "inputs": [
        {
          "indexed": true,
          "internalType": "bytes32",
          "name": "role",
          "type": "bytes32"
        },
        {
          "indexed": true,
          "internalType": "address",
          "name": "account",
          "type": "address"
        },
        {
          "indexed": true,
          "internalType": "address",
          "name": "sender",
          "type": "address"
        }
      ],
      "name": "RoleRevoked",
      "type": "event"
    },
    {
      "anonymous": false,
      "inputs": [
        {
          "indexed": false,
          "internalType": "uint256",
          "name": "feeBps",
          "type": "uint256"
        },
        {
          "indexed": true,
          "internalType": "address",
          "name": "admin",
          "type": "address"
        }
      ],
      "name": "SetBuyFeeBps",
      "type": "event"
    },
    {
      "anonymous": false,
      "inputs": [
        {
          "indexed": true,
          "internalType": "address",
          "name": "account",
          "type": "address"
        },
        {
          "indexed": false,
          "internalType": "bool",
          "name": "exempt",
          "type": "bool"
        },
        {
          "indexed": true,
          "internalType": "address",
          "name": "admin",
          "type": "address"
        }
      ],
      "name": "SetExempt",
      "type": "event"
    },
    {
      "anonymous": false,
      "inputs": [
        {
          "indexed": false,
          "internalType": "address[]",
          "name": "recipients",
          "type": "address[]"
        },
        {
          "indexed": false,
          "internalType": "uint256[]",
          "name": "splitsBps",
          "type": "uint256[]"
        },
        {
          "indexed": true,
          "internalType": "address",
          "name": "admin",
          "type": "address"
        }
      ],
      "name": "SetFeeSplits",
      "type": "event"
    },
    {
      "anonymous": false,
      "inputs": [
        {
          "indexed": true,
          "internalType": "address",
          "name": "lpPair",
          "type": "address"
        },
        {
          "indexed": false,
          "internalType": "bool",
          "name": "isLpPair",
          "type": "bool"
        },
        {
          "indexed": true,
          "internalType": "address",
          "name": "admin",
          "type": "address"
        }
      ],
      "name": "SetLPPair",
      "type": "event"
    },
    {
      "anonymous": false,
      "inputs": [
        {
          "indexed": false,
          "internalType": "uint256",
          "name": "feeBps",
          "type": "uint256"
        },
        {
          "indexed": true,
          "internalType": "address",
          "name": "admin",
          "type": "address"
        }
      ],
      "name": "SetSellFeeBps",
      "type": "event"
    },
    {
      "anonymous": false,
      "inputs": [
        {
          "indexed": true,
          "internalType": "address",
          "name": "from",
          "type": "address"
        },
        {
          "indexed": true,
          "internalType": "address",
          "name": "to",
          "type": "address"
        },
        {
          "indexed": false,
          "internalType": "uint256",
          "name": "value",
          "type": "uint256"
        }
      ],
      "name": "Transfer",
      "type": "event"
    },
    {
      "inputs": [],
      "name": "CLOCK_MODE",
      "outputs": [
        {
          "internalType": "string",
          "name": "",
          "type": "string"
        }
      ],
      "stateMutability": "pure",
      "type": "function"
    },
    {
      "inputs": [],
      "name": "DEFAULT_ADMIN_ROLE",
      "outputs": [
        {
          "internalType": "bytes32",
          "name": "",
          "type": "bytes32"
        }
      ],
      "stateMutability": "view",
      "type": "function"
    },
    {
      "inputs": [],
      "name": "DOMAIN_SEPARATOR",
      "outputs": [
        {
          "internalType": "bytes32",
          "name": "",
          "type": "bytes32"
        }
      ],
      "stateMutability": "view",
      "type": "function"
    },
    {
      "inputs": [],
      "name": "FEE_MANAGER_ROLE",
      "outputs": [
        {
          "internalType": "bytes32",
          "name": "",
          "type": "bytes32"
        }
      ],
      "stateMutability": "view",
      "type": "function"
    },
    {
      "inputs": [
        {
          "internalType": "address",
          "name": "owner",
          "type": "address"
        },
        {
          "internalType": "address",
          "name": "spender",
          "type": "address"
        }
      ],
      "name": "allowance",
      "outputs": [
        {
          "internalType": "uint256",
          "name": "",
          "type": "uint256"
        }
      ],
      "stateMutability": "view",
      "type": "function"
    },
    {
      "inputs": [
        {
          "internalType": "address",
          "name": "spender",
          "type": "address"
        },
        {
          "internalType": "uint256",
          "name": "value",
          "type": "uint256"
        }
      ],
      "name": "approve",
      "outputs": [
        {
          "internalType": "bool",
          "name": "",
          "type": "bool"
        }
      ],
      "stateMutability": "nonpayable",
      "type": "function"
    },
    {
      "inputs": [
        {
          "internalType": "address",
          "name": "account",
          "type": "address"
        }
      ],
      "name": "balanceOf",
      "outputs": [
        {
          "internalType": "uint256",
          "name": "",
          "type": "uint256"
        }
      ],
      "stateMutability": "view",
      "type": "function"
    },
    {
      "inputs": [],
      "name": "buyFeeBps",
      "outputs": [
        {
          "internalType": "uint256",
          "name": "",
          "type": "uint256"
        }
      ],
      "stateMutability": "view",
      "type": "function"
    },
    {
      "inputs": [
        {
          "internalType": "address",
          "name": "account",
          "type": "address"
        },
        {
          "internalType": "uint32",
          "name": "pos",
          "type": "uint32"
        }
      ],
      "name": "checkpoints",
      "outputs": [
        {
          "components": [
            {
              "internalType": "uint48",
              "name": "_key",
              "type": "uint48"
            },
            {
              "internalType": "uint208",
              "name": "_value",
              "type": "uint208"
            }
          ],
          "internalType": "struct Checkpoints.Checkpoint208",
          "name": "",
          "type": "tuple"
        }
      ],
      "stateMutability": "view",
      "type": "function"
    },
    {
      "inputs": [],
      "name": "clock",
      "outputs": [
        {
          "internalType": "uint48",
          "name": "",
          "type": "uint48"
        }
      ],
      "stateMutability": "view",
      "type": "function"
    },
    {
      "inputs": [],
      "name": "decimals",
      "outputs": [
        {
          "internalType": "uint8",
          "name": "",
          "type": "uint8"
        }
      ],
      "stateMutability": "view",
      "type": "function"
    },
    {
      "inputs": [
        {
          "internalType": "address",
          "name": "delegatee",
          "type": "address"
        }
      ],
      "name": "delegate",
      "outputs": [],
      "stateMutability": "nonpayable",
      "type": "function"
    },
    {
      "inputs": [
        {
          "internalType": "address",
          "name": "delegatee",
          "type": "address"
        },
        {
          "internalType": "uint256",
          "name": "nonce",
          "type": "uint256"
        },
        {
          "internalType": "uint256",
          "name": "expiry",
          "type": "uint256"
        },
        {
          "internalType": "uint8",
          "name": "v",
          "type": "uint8"
        },
        {
          "internalType": "bytes32",
          "name": "r",
          "type": "bytes32"
        },
        {
          "internalType": "bytes32",
          "name": "s",
          "type": "bytes32"
        }
      ],
      "name": "delegateBySig",
      "outputs": [],
      "stateMutability": "nonpayable",
      "type": "function"
    },
    {
      "inputs": [
        {
          "internalType": "address",
          "name": "account",
          "type": "address"
        }
      ],
      "name": "delegates",
      "outputs": [
        {
          "internalType": "address",
          "name": "",
          "type": "address"
        }
      ],
      "stateMutability": "view",
      "type": "function"
    },
    {
      "inputs": [],
      "name": "eip712Domain",
      "outputs": [
        {
          "internalType": "bytes1",
          "name": "fields",
          "type": "bytes1"
        },
        {
          "internalType": "string",
          "name": "name",
          "type": "string"
        },
        {
          "internalType": "string",
          "name": "version",
          "type": "string"
        },
        {
          "internalType": "uint256",
          "name": "chainId",
          "type": "uint256"
        },
        {
          "internalType": "address",
          "name": "verifyingContract",
          "type": "address"
        },
        {
          "internalType": "bytes32",
          "name": "salt",
          "type": "bytes32"
        },
        {
          "internalType": "uint256[]",
          "name": "extensions",
          "type": "uint256[]"
        }
      ],
      "stateMutability": "view",
      "type": "function"
    },
    {
      "inputs": [
        {
          "internalType": "uint256",
          "name": "timepoint",
          "type": "uint256"
        }
      ],
      "name": "getPastTotalSupply",
      "outputs": [
        {
          "internalType": "uint256",
          "name": "",
          "type": "uint256"
        }
      ],
      "stateMutability": "view",
      "type": "function"
    },
    {
      "inputs": [
        {
          "internalType": "address",
          "name": "account",
          "type": "address"
        },
        {
          "internalType": "uint256",
          "name": "timepoint",
          "type": "uint256"
        }
      ],
      "name": "getPastVotes",
      "outputs": [
        {
          "internalType": "uint256",
          "name": "",
          "type": "uint256"
        }
      ],
      "stateMutability": "view",
      "type": "function"
    },
    {
      "inputs": [
        {
          "internalType": "bytes32",
          "name": "role",
          "type": "bytes32"
        }
      ],
      "name": "getRoleAdmin",
      "outputs": [
        {
          "internalType": "bytes32",
          "name": "",
          "type": "bytes32"
        }
      ],
      "stateMutability": "view",
      "type": "function"
    },
    {
      "inputs": [
        {
          "internalType": "address",
          "name": "account",
          "type": "address"
        }
      ],
      "name": "getVotes",
      "outputs": [
        {
          "internalType": "uint256",
          "name": "",
          "type": "uint256"
        }
      ],
      "stateMutability": "view",
      "type": "function"
    },
    {
      "inputs": [
        {
          "internalType": "bytes32",
          "name": "role",
          "type": "bytes32"
        },
        {
          "internalType": "address",
          "name": "account",
          "type": "address"
        }
      ],
      "name": "grantRole",
      "outputs": [],
      "stateMutability": "nonpayable",
      "type": "function"
    },
    {
      "inputs": [
        {
          "internalType": "bytes32",
          "name": "role",
          "type": "bytes32"
        },
        {
          "internalType": "address",
          "name": "account",
          "type": "address"
        }
      ],
      "name": "hasRole",
      "outputs": [
        {
          "internalType": "bool",
          "name": "",
          "type": "bool"
        }
      ],
      "stateMutability": "view",
      "type": "function"
    },
    {
      "inputs": [
        {
          "internalType": "address",
          "name": "account",
          "type": "address"
        }
      ],
      "name": "isExempt",
      "outputs": [
        {
          "internalType": "bool",
          "name": "",
          "type": "bool"
        }
      ],
      "stateMutability": "view",
      "type": "function"
    },
    {
      "inputs": [
        {
          "internalType": "address",
          "name": "account",
          "type": "address"
        }
      ],
      "name": "isLPPair",
      "outputs": [
        {
          "internalType": "bool",
          "name": "",
          "type": "bool"
        }
      ],
      "stateMutability": "view",
      "type": "function"
    },
    {
      "inputs": [],
      "name": "name",
      "outputs": [
        {
          "internalType": "string",
          "name": "",
          "type": "string"
        }
      ],
      "stateMutability": "view",
      "type": "function"
    },
    {
      "inputs": [
        {
          "internalType": "address",
          "name": "owner",
          "type": "address"
        }
      ],
      "name": "nonces",
      "outputs": [
        {
          "internalType": "uint256",
          "name": "",
          "type": "uint256"
        }
      ],
      "stateMutability": "view",
      "type": "function"
    },
    {
      "inputs": [
        {
          "internalType": "address",
          "name": "account",
          "type": "address"
        }
      ],
      "name": "numCheckpoints",
      "outputs": [
        {
          "internalType": "uint32",
          "name": "",
          "type": "uint32"
        }
      ],
      "stateMutability": "view",
      "type": "function"
    },
    {
      "inputs": [
        {
          "internalType": "address",
          "name": "owner",
          "type": "address"
        },
        {
          "internalType": "address",
          "name": "spender",
          "type": "address"
        },
        {
          "internalType": "uint256",
          "name": "value",
          "type": "uint256"
        },
        {
          "internalType": "uint256",
          "name": "deadline",
          "type": "uint256"
        },
        {
          "internalType": "uint8",
          "name": "v",
          "type": "uint8"
        },
        {
          "internalType": "bytes32",
          "name": "r",
          "type": "bytes32"
        },
        {
          "internalType": "bytes32",
          "name": "s",
          "type": "bytes32"
        }
      ],
      "name": "permit",
      "outputs": [],
      "stateMutability": "nonpayable",
      "type": "function"
    },
    {
      "inputs": [
        {
          "internalType": "bytes32",
          "name": "role",
          "type": "bytes32"
        },
        {
          "internalType": "address",
          "name": "callerConfirmation",
          "type": "address"
        }
      ],
      "name": "renounceRole",
      "outputs": [],
      "stateMutability": "nonpayable",
      "type": "function"
    },
    {
      "inputs": [
        {
          "internalType": "bytes32",
          "name": "role",
          "type": "bytes32"
        },
        {
          "internalType": "address",
          "name": "account",
          "type": "address"
        }
      ],
      "name": "revokeRole",
      "outputs": [],
      "stateMutability": "nonpayable",
      "type": "function"
    },
    {
      "inputs": [],
      "name": "sellFeeBps",
      "outputs": [
        {
          "internalType": "uint256",
          "name": "",
          "type": "uint256"
        }
      ],
      "stateMutability": "view",
      "type": "function"
    },
    {
      "inputs": [
        {
          "internalType": "address[]",
          "name": "accounts",
          "type": "address[]"
        },
        {
          "internalType": "bool",
          "name": "exempt",
          "type": "bool"
        }
      ],
      "name": "setExempt",
      "outputs": [],
      "stateMutability": "nonpayable",
      "type": "function"
    },
    {
      "inputs": [
        {
          "internalType": "address",
          "name": "lpPair",
          "type": "address"
        },
        {
          "internalType": "bool",
          "name": "_isLpPair",
          "type": "bool"
        }
      ],
      "name": "setLPPair",
      "outputs": [],
      "stateMutability": "nonpayable",
      "type": "function"
    },
    {
      "inputs": [
        {
          "internalType": "bytes4",
          "name": "interfaceId",
          "type": "bytes4"
        }
      ],
      "name": "supportsInterface",
      "outputs": [
        {
          "internalType": "bool",
          "name": "",
          "type": "bool"
        }
      ],
      "stateMutability": "view",
      "type": "function"
    },
    {
      "inputs": [],
      "name": "symbol",
      "outputs": [
        {
          "internalType": "string",
          "name": "",
          "type": "string"
        }
      ],
      "stateMutability": "view",
      "type": "function"
    },
    {
      "inputs": [],
      "name": "totalSupply",
      "outputs": [
        {
          "internalType": "uint256",
          "name": "",
          "type": "uint256"
        }
      ],
      "stateMutability": "view",
      "type": "function"
    },
    {
      "inputs": [
        {
          "internalType": "address",
          "name": "to",
          "type": "address"
        },
        {
          "internalType": "uint256",
          "name": "value",
          "type": "uint256"
        }
      ],
      "name": "transfer",
      "outputs": [
        {
          "internalType": "bool",
          "name": "",
          "type": "bool"
        }
      ],
      "stateMutability": "nonpayable",
      "type": "function"
    },
    {
      "inputs": [
        {
          "internalType": "address",
          "name": "from",
          "type": "address"
        },
        {
          "internalType": "address",
          "name": "to",
          "type": "address"
        },
        {
          "internalType": "uint256",
          "name": "value",
          "type": "uint256"
        }
      ],
      "name": "transferFrom",
      "outputs": [
        {
          "internalType": "bool",
          "name": "",
          "type": "bool"
        }
      ],
      "stateMutability": "nonpayable",
      "type": "function"
    }
  ],
  "bytecode": "0x61016060405234801561001157600080fd5b50604051617969380380617969833981810160405281019061003391906122e8565b6040518060400160405280600381526020017f4754410000000000000000000000000000000000000000000000000000000000815250806040518060400160405280600181526020017f31000000000000000000000000000000000000000000000000000000000000008152506040518060400160405280600381526020017f47544100000000000000000000000000000000000000000000000000000000008152506040518060400160405280600381526020017f4754410000000000000000000000000000000000000000000000000000000000815250816003908161011b91906125b2565b50806004908161012b91906125b2565b50505061014260058361032160201b90919060201c565b610120818152505061015e60068261032160201b90919060201c565b6101408181525050818051906020012060e08181525050808051906020012061010081815250504660a0818152505061019b61037160201b60201c565b608081815250503073ffffffffffffffffffffffffffffffffffffffff1660c08173ffffffffffffffffffffffffffffffffffffffff1681525050505050600073ffffffffffffffffffffffffffffffffffffffff168573ffffffffffffffffffffffffffffffffffffffff160361024b5760006040517fc36ee6110000000000000000000000000000000000000000000000000000000081526004016102429190612693565b60405180910390fd5b61025a846103cc60201b60201c565b610269836103cc60201b60201c565b610279828261041660201b60201c565b83600c8190555082600d8190555081600e908051906020019061029d929190611ef2565b5080600f90805190602001906102b4929190611f7c565b506102c86000801b866106a560201b60201c565b506102f97f6c0757dc3e6b28b2580c03fd9e96c274acf4f99d91fbec9b418fa1d70604ff1c866106a560201b60201c565b50610317856c0c9f2c9cd04674edea400000006107a360201b60201c565b5050505050612bc2565b60006020835110156103435761033c8361082b60201b60201c565b905061036b565b826103538361089360201b60201c565b600001908161036291906125b2565b5060ff60001b90505b92915050565b60007f8b73c3c69bb8fe3d512ecc4cf759cc79239f7b179b0ffacaa9a75d522b39400f60e0516101005146306040516020016103b19594939291906126d6565b60405160208183030381529060405280519060200120905090565b6102ee81111561041357806040517f3329f93200000000000000000000000000000000000000000000000000000000815260040161040a9190612729565b60405180910390fd5b50565b6000825190506005811115610465576005816040517fe037111800000000000000000000000000000000000000000000000000000000815260040161045c929190612744565b60405180910390fd5b815181146104ad578082516040517f909200840000000000000000000000000000000000000000000000000000000081526004016104a4929190612744565b60405180910390fd5b600080600090505b828110156106575760008482815181106104d2576104d161276d565b5b60200260200101510361051d5760006040517f90126b9700000000000000000000000000000000000000000000000000000000815260040161051491906127d7565b60405180910390fd5b600073ffffffffffffffffffffffffffffffffffffffff168582815181106105485761054761276d565b5b602002602001015173ffffffffffffffffffffffffffffffffffffffff16036105a95760006040517ff80a23ec0000000000000000000000000000000000000000000000000000000081526004016105a09190612693565b60405180910390fd5b6127108482815181106105bf576105be61276d565b5b60200260200101511115610624578381815181106105e0576105df61276d565b5b60200260200101516040517f90126b9700000000000000000000000000000000000000000000000000000000815260040161061b9190612729565b60405180910390fd5b8381815181106106375761063661276d565b5b60200260200101518261064a9190612821565b91508060010190506104b5565b5061271081111561069f57806040517f90126b970000000000000000000000000000000000000000000000000000000081526004016106969190612729565b60405180910390fd5b50505050565b60006106b7838361089d60201b60201c565b610798576001600b600085815260200190815260200160002060000160008473ffffffffffffffffffffffffffffffffffffffff1673ffffffffffffffffffffffffffffffffffffffff16815260200190815260200160002060006101000a81548160ff02191690831515021790555061073561090860201b60201c565b73ffffffffffffffffffffffffffffffffffffffff168273ffffffffffffffffffffffffffffffffffffffff16847f2f8788117e7eff1d82e926ec794901d17c78024a50270940304540a733656f0d60405160405180910390a46001905061079d565b600090505b92915050565b600073ffffffffffffffffffffffffffffffffffffffff168273ffffffffffffffffffffffffffffffffffffffff16036108155760006040517fec442f0500000000000000000000000000000000000000000000000000000000815260040161080c9190612693565b60405180910390fd5b6108276000838361091060201b60201c565b5050565b600080829050601f8151111561087857826040517f305a27a900000000000000000000000000000000000000000000000000000000815260040161086f91906128c9565b60405180910390fd5b8051816108849061291b565b60001c1760001b915050919050565b6000819050919050565b6000600b600084815260200190815260200160002060000160008373ffffffffffffffffffffffffffffffffffffffff1673ffffffffffffffffffffffffffffffffffffffff16815260200190815260200160002060009054906101000a900460ff16905092915050565b600033905090565b600073ffffffffffffffffffffffffffffffffffffffff168373ffffffffffffffffffffffffffffffffffffffff1614806109775750600073ffffffffffffffffffffffffffffffffffffffff168273ffffffffffffffffffffffffffffffffffffffff16145b806109825750600081145b1561099d57610998838383610c8060201b60201c565b610c7b565b60006109b0848484610d4960201b60201c565b90506000600e805480602002602001604051908101604052809291908181526020018280548015610a3657602002820191906000526020600020905b8160009054906101000a900473ffffffffffffffffffffffffffffffffffffffff1673ffffffffffffffffffffffffffffffffffffffff16815260200190600101908083116109ec575b5050505050905081600001519250600082604001515190506000811115610b7f5781518114610a9f578082516040517f90920084000000000000000000000000000000000000000000000000000000008152600401610a96929190612744565b60405180910390fd5b60005b81811015610b7d576000838281518110610abf57610abe61276d565b5b60200260200101519050600085604001518381518110610ae257610ae161276d565b5b602002602001015190506000811115610b7057610b06898383610c8060201b60201c565b8173ffffffffffffffffffffffffffffffffffffffff16866060015173ffffffffffffffffffffffffffffffffffffffff167faaa40a232aaf133fdd28f3485f6fdd163514cfadbffa981f3610f42398efe34b83604051610b679190612729565b60405180910390a35b5050806001019050610aa2565b505b600083602001511115610bf757610ba086846020015161114760201b60201c565b826060015173ffffffffffffffffffffffffffffffffffffffff167fcc16f5dbb4873280815c1ee09dbd06736cffcc184412cf7a71a0fdb75d397ca58460200151604051610bee9190612729565b60405180910390a25b610c08868686610c8060201b60201c565b610c17856111cf60201b60201c565b15610c2457505050610c7b565b600073ffffffffffffffffffffffffffffffffffffffff16610c4b8661122560201b60201c565b73ffffffffffffffffffffffffffffffffffffffff1603610c7757610c76858661128e60201b60201c565b5b5050505b505050565b610c918383836113b460201b60201c565b600073ffffffffffffffffffffffffffffffffffffffff168373ffffffffffffffffffffffffffffffffffffffff1603610d33576000610cd56115d960201b60201c565b90506000610ce76115e360201b60201c565b905080821115610d305781816040517f1cb15d26000000000000000000000000000000000000000000000000000000008152600401610d27929190612744565b60405180910390fd5b50505b610d4483838361160760201b60201c565b505050565b610d51611fc9565b610d60846111cf60201b60201c565b15610f4357610d74836116f960201b60201c565b80610d8157506000600c54145b15610d955781816000018181525050611140565b82816060019073ffffffffffffffffffffffffffffffffffffffff16908173ffffffffffffffffffffffffffffffffffffffff16815250506000612710600c5484610de09190612982565b610dea91906129f3565b90506000600e80549050905060008103610e24578184610e0a9190612a24565b836000018181525050818360200181815250505050611140565b6000808267ffffffffffffffff811115610e4157610e406120e2565b5b604051908082528060200260200182016040528015610e6f5781602001602082028036833780820191505090505b50905060005b83811015610f0657612710600f8281548110610e9457610e9361276d565b5b906000526020600020015486610eaa9190612982565b610eb491906129f3565b828281518110610ec757610ec661276d565b5b602002602001018181525050818181518110610ee657610ee561276d565b5b602002602001015183610ef99190612821565b9250806001019050610e75565b508386610f139190612a24565b8560000181815250508184610f289190612a24565b85602001818152505080856040018190525050505050611140565b610f52836111cf60201b60201c565b1561113557610f66846116f960201b60201c565b80610f7357506000600d54145b15610f875781816000018181525050611140565b83816060019073ffffffffffffffffffffffffffffffffffffffff16908173ffffffffffffffffffffffffffffffffffffffff16815250506000612710600d5484610fd29190612982565b610fdc91906129f3565b90506000600e80549050905060008103611016578184610ffc9190612a24565b836000018181525050818360200181815250505050611140565b6000808267ffffffffffffffff811115611033576110326120e2565b5b6040519080825280602002602001820160405280156110615781602001602082028036833780820191505090505b50905060005b838110156110f857612710600f82815481106110865761108561276d565b5b90600052602060002001548661109c9190612982565b6110a691906129f3565b8282815181106110b9576110b861276d565b5b6020026020010181815250508181815181106110d8576110d761276d565b5b6020026020010151836110eb9190612821565b9250806001019050611067565b5083866111059190612a24565b856000018181525050818461111a9190612a24565b85602001818152505080856040018190525050505050611140565b818160000181815250505b9392505050565b600073ffffffffffffffffffffffffffffffffffffffff168273ffffffffffffffffffffffffffffffffffffffff16036111b95760006040517f96c6fd1e0000000000000000000000000000000000000000000000000000000081526004016111b09190612693565b60405180910390fd5b6111cb8260008361091060201b60201c565b5050565b6000601160008373ffffffffffffffffffffffffffffffffffffffff1673ffffffffffffffffffffffffffffffffffffffff16815260200190815260200160002060009054906101000a900460ff169050919050565b6000600860008373ffffffffffffffffffffffffffffffffffffffff1673ffffffffffffffffffffffffffffffffffffffff16815260200190815260200160002060009054906101000a900473ffffffffffffffffffffffffffffffffffffffff169050919050565b600061129f8361122560201b60201c565b905081600860008573ffffffffffffffffffffffffffffffffffffffff1673ffffffffffffffffffffffffffffffffffffffff16815260200190815260200160002060006101000a81548173ffffffffffffffffffffffffffffffffffffffff021916908373ffffffffffffffffffffffffffffffffffffffff1602179055508173ffffffffffffffffffffffffffffffffffffffff168173ffffffffffffffffffffffffffffffffffffffff168473ffffffffffffffffffffffffffffffffffffffff167f3134e8a2e6d97e929a7e54011ea5485d7d196dd5f0ba4d4ef95803e8e3fc257f60405160405180910390a46113af81836113a48661174f60201b60201c565b61176760201b60201c565b505050565b600073ffffffffffffffffffffffffffffffffffffffff168373ffffffffffffffffffffffffffffffffffffffff16036114065780600260008282546113fa9190612821565b925050819055506114d9565b60008060008573ffffffffffffffffffffffffffffffffffffffff1673ffffffffffffffffffffffffffffffffffffffff16815260200190815260200160002054905081811015611492578381836040517fe450d38c00000000000000000000000000000000000000000000000000000000815260040161148993929190612a58565b60405180910390fd5b8181036000808673ffffffffffffffffffffffffffffffffffffffff1673ffffffffffffffffffffffffffffffffffffffff16815260200190815260200160002081905550505b600073ffffffffffffffffffffffffffffffffffffffff168273ffffffffffffffffffffffffffffffffffffffff1603611522578060026000828254039250508190555061156f565b806000808473ffffffffffffffffffffffffffffffffffffffff1673ffffffffffffffffffffffffffffffffffffffff168152602001908152602001600020600082825401925050819055505b8173ffffffffffffffffffffffffffffffffffffffff168373ffffffffffffffffffffffffffffffffffffffff167fddf252ad1be2c89b69c2b068fc378daa952ba7f163c4a11628f55a4df523b3ef836040516115cc9190612729565b60405180910390a3505050565b6000600254905090565b600079ffffffffffffffffffffffffffffffffffffffffffffffffffff8016905090565b600073ffffffffffffffffffffffffffffffffffffffff168373ffffffffffffffffffffffffffffffffffffffff160361166757611664600a611a0660201b6114d11761165984611a1c60201b60201c565b611a8a60201b60201c565b50505b600073ffffffffffffffffffffffffffffffffffffffff168273ffffffffffffffffffffffffffffffffffffffff16036116c7576116c4600a611ad360201b6114e7176116b984611a1c60201b60201c565b611a8a60201b60201c565b50505b6116f46116d98461122560201b60201c565b6116e88461122560201b60201c565b8361176760201b60201c565b505050565b6000601060008373ffffffffffffffffffffffffffffffffffffffff1673ffffffffffffffffffffffffffffffffffffffff16815260200190815260200160002060009054906101000a900460ff169050919050565b600061176082611ae960201b60201c565b9050919050565b8173ffffffffffffffffffffffffffffffffffffffff168373ffffffffffffffffffffffffffffffffffffffff16141580156117a35750600081115b15611a0157600073ffffffffffffffffffffffffffffffffffffffff168373ffffffffffffffffffffffffffffffffffffffff16146118d457600080611845600960008773ffffffffffffffffffffffffffffffffffffffff1673ffffffffffffffffffffffffffffffffffffffff168152602001908152602001600020611ad360201b6114e71761183a86611a1c60201b60201c565b611a8a60201b60201c565b79ffffffffffffffffffffffffffffffffffffffffffffffffffff16915079ffffffffffffffffffffffffffffffffffffffffffffffffffff1691508473ffffffffffffffffffffffffffffffffffffffff167fdec2bacdd2f05b59de34da9b523dff8be42e5e38e818c82fdb0bae774387a72483836040516118c9929190612744565b60405180910390a250505b600073ffffffffffffffffffffffffffffffffffffffff168273ffffffffffffffffffffffffffffffffffffffff1614611a0057600080611971600960008673ffffffffffffffffffffffffffffffffffffffff1673ffffffffffffffffffffffffffffffffffffffff168152602001908152602001600020611a0660201b6114d11761196686611a1c60201b60201c565b611a8a60201b60201c565b79ffffffffffffffffffffffffffffffffffffffffffffffffffff16915079ffffffffffffffffffffffffffffffffffffffffffffffffffff1691508373ffffffffffffffffffffffffffffffffffffffff167fdec2bacdd2f05b59de34da9b523dff8be42e5e38e818c82fdb0bae774387a72483836040516119f5929190612744565b60405180910390a250505b5b505050565b60008183611a149190612ab5565b905092915050565b600079ffffffffffffffffffffffffffffffffffffffffffffffffffff8016821115611a825760d0826040517f6dfcc650000000000000000000000000000000000000000000000000000000008152600401611a79929190612b4b565b60405180910390fd5b819050919050565b600080611ac7611a9e611b3160201b60201c565b611ab7611ab088611b3960201b60201c565b868860201c565b87611ba760201b9092919060201c565b91509150935093915050565b60008183611ae19190612b74565b905092915050565b60008060008373ffffffffffffffffffffffffffffffffffffffff1673ffffffffffffffffffffffffffffffffffffffff168152602001908152602001600020549050919050565b600042905090565b6000808260000180549050905060008114611b9c57611b6d83600001600183611b629190612a24565b611bca60201b60201c565b60000160069054906101000a900479ffffffffffffffffffffffffffffffffffffffffffffffffffff16611b9f565b60005b915050919050565b600080611bbe856000018585611bdf60201b60201c565b91509150935093915050565b60008260005281602060002001905092915050565b6000806000858054905090506000811115611e02576000611c1287600184611c079190612a24565b611bca60201b60201c565b905060008160000160009054906101000a900465ffffffffffff16905060008260000160069054906101000a900479ffffffffffffffffffffffffffffffffffffffffffffffffffff1690508765ffffffffffff168265ffffffffffff161115611ca8576040517f2520601d00000000000000000000000000000000000000000000000000000000815260040160405180910390fd5b8765ffffffffffff168265ffffffffffff1603611d1357868360000160066101000a81548179ffffffffffffffffffffffffffffffffffffffffffffffffffff021916908379ffffffffffffffffffffffffffffffffffffffffffffffffffff160217905550611df3565b8860405180604001604052808a65ffffffffffff1681526020018979ffffffffffffffffffffffffffffffffffffffffffffffffffff168152509080600181540180825580915050600190039060005260206000200160009091909190915060008201518160000160006101000a81548165ffffffffffff021916908365ffffffffffff16021790555060208201518160000160066101000a81548179ffffffffffffffffffffffffffffffffffffffffffffffffffff021916908379ffffffffffffffffffffffffffffffffffffffffffffffffffff16021790555050505b80879550955050505050611eea565b8560405180604001604052808765ffffffffffff1681526020018679ffffffffffffffffffffffffffffffffffffffffffffffffffff168152509080600181540180825580915050600190039060005260206000200160009091909190915060008201518160000160006101000a81548165ffffffffffff021916908365ffffffffffff16021790555060208201518160000160066101000a81548179ffffffffffffffffffffffffffffffffffffffffffffffffffff021916908379ffffffffffffffffffffffffffffffffffffffffffffffffffff160217905550505060008492509250505b935093915050565b828054828255906000526020600020908101928215611f6b579160200282015b82811115611f6a5782518260006101000a81548173ffffffffffffffffffffffffffffffffffffffff021916908373ffffffffffffffffffffffffffffffffffffffff16021790555091602001919060010190611f12565b5b509050611f789190612007565b5090565b828054828255906000526020600020908101928215611fb8579160200282015b82811115611fb7578251825591602001919060010190611f9c565b5b509050611fc59190612007565b5090565b6040518060800160405280600081526020016000815260200160608152602001600073ffffffffffffffffffffffffffffffffffffffff1681525090565b5b80821115612020576000816000905550600101612008565b5090565b6000604051905090565b600080fd5b600080fd5b600073ffffffffffffffffffffffffffffffffffffffff82169050919050565b600061206382612038565b9050919050565b61207381612058565b811461207e57600080fd5b50565b6000815190506120908161206a565b92915050565b6000819050919050565b6120a981612096565b81146120b457600080fd5b50565b6000815190506120c6816120a0565b92915050565b600080fd5b6000601f19601f8301169050919050565b7f4e487b7100000000000000000000000000000000000000000000000000000000600052604160045260246000fd5b61211a826120d1565b810181811067ffffffffffffffff82111715612139576121386120e2565b5b80604052505050565b600061214c612024565b90506121588282612111565b919050565b600067ffffffffffffffff821115612178576121776120e2565b5b602082029050602081019050919050565b600080fd5b60006121a161219c8461215d565b612142565b905080838252602082019050602084028301858111156121c4576121c3612189565b5b835b818110156121ed57806121d98882612081565b8452602084019350506020810190506121c6565b5050509392505050565b600082601f83011261220c5761220b6120cc565b5b815161221c84826020860161218e565b91505092915050565b600067ffffffffffffffff8211156122405761223f6120e2565b5b602082029050602081019050919050565b600061226461225f84612225565b612142565b9050808382526020820190506020840283018581111561228757612286612189565b5b835b818110156122b0578061229c88826120b7565b845260208401935050602081019050612289565b5050509392505050565b600082601f8301126122cf576122ce6120cc565b5b81516122df848260208601612251565b91505092915050565b600080600080600060a086880312156123045761230361202e565b5b600061231288828901612081565b9550506020612323888289016120b7565b9450506040612334888289016120b7565b935050606086015167ffffffffffffffff81111561235557612354612033565b5b612361888289016121f7565b925050608086015167ffffffffffffffff81111561238257612381612033565b5b61238e888289016122ba565b9150509295509295909350565b600081519050919050565b7f4e487b7100000000000000000000000000000000000000000000000000000000600052602260045260246000fd5b600060028204905060018216806123ed57607f821691505b602082108103612400576123ff6123a6565b5b50919050565b60008190508160005260206000209050919050565b60006020601f8301049050919050565b600082821b905092915050565b6000600883026124687fffffffffffffffffffffffffffffffffffffffffffffffffffffffffffffffff8261242b565b612472868361242b565b95508019841693508086168417925050509392505050565b6000819050919050565b60006124af6124aa6124a584612096565b61248a565b612096565b9050919050565b6000819050919050565b6124c983612494565b6124dd6124d5826124b6565b848454612438565b825550505050565b600090565b6124f26124e5565b6124fd8184846124c0565b505050565b5b81811015612521576125166000826124ea565b600181019050612503565b5050565b601f8211156125665761253781612406565b6125408461241b565b8101602085101561254f578190505b61256361255b8561241b565b830182612502565b50505b505050565b600082821c905092915050565b60006125896000198460080261256b565b1980831691505092915050565b60006125a28383612578565b9150826002028217905092915050565b6125bb8261239b565b67ffffffffffffffff8111156125d4576125d36120e2565b5b6125de82546123d5565b6125e9828285612525565b600060209050601f83116001811461261c576000841561260a578287015190505b6126148582612596565b86555061267c565b601f19841661262a86612406565b60005b828110156126525784890151825560018201915060208501945060208101905061262d565b8683101561266f578489015161266b601f891682612578565b8355505b6001600288020188555050505b505050505050565b61268d81612058565b82525050565b60006020820190506126a86000830184612684565b92915050565b6000819050919050565b6126c1816126ae565b82525050565b6126d081612096565b82525050565b600060a0820190506126eb60008301886126b8565b6126f860208301876126b8565b61270560408301866126b8565b61271260608301856126c7565b61271f6080830184612684565b9695505050505050565b600060208201905061273e60008301846126c7565b92915050565b600060408201905061275960008301856126c7565b61276660208301846126c7565b9392505050565b7f4e487b7100000000000000000000000000000000000000000000000000000000600052603260045260246000fd5b6000819050919050565b60006127c16127bc6127b78461279c565b61248a565b612096565b9050919050565b6127d1816127a6565b82525050565b60006020820190506127ec60008301846127c8565b92915050565b7f4e487b7100000000000000000000000000000000000000000000000000000000600052601160045260246000fd5b600061282c82612096565b915061283783612096565b925082820190508082111561284f5761284e6127f2565b5b92915050565b600082825260208201905092915050565b60005b83811015612884578082015181840152602081019050612869565b60008484015250505050565b600061289b8261239b565b6128a58185612855565b93506128b5818560208601612866565b6128be816120d1565b840191505092915050565b600060208201905081810360008301526128e38184612890565b905092915050565b600081519050919050565b6000819050602082019050919050565b600061291282516126ae565b80915050919050565b6000612926826128eb565b82612930846128f6565b905061293b81612906565b9250602082101561297b576129767fffffffffffffffffffffffffffffffffffffffffffffffffffffffffffffffff8360200360080261242b565b831692505b5050919050565b600061298d82612096565b915061299883612096565b92508282026129a681612096565b915082820484148315176129bd576129bc6127f2565b5b5092915050565b7f4e487b7100000000000000000000000000000000000000000000000000000000600052601260045260246000fd5b60006129fe82612096565b9150612a0983612096565b925082612a1957612a186129c4565b5b828204905092915050565b6000612a2f82612096565b9150612a3a83612096565b9250828203905081811115612a5257612a516127f2565b5b92915050565b6000606082019050612a6d6000830186612684565b612a7a60208301856126c7565b612a8760408301846126c7565b949350505050565b600079ffffffffffffffffffffffffffffffffffffffffffffffffffff82169050919050565b6000612ac082612a8f565b9150612acb83612a8f565b9250828201905079ffffffffffffffffffffffffffffffffffffffffffffffffffff811115612afd57612afc6127f2565b5b92915050565b6000819050919050565b600060ff82169050919050565b6000612b35612b30612b2b84612b03565b61248a565b612b0d565b9050919050565b612b4581612b1a565b82525050565b6000604082019050612b606000830185612b3c565b612b6d60208301846126c7565b9392505050565b6000612b7f82612a8f565b9150612b8a83612a8f565b9250828203905079ffffffffffffffffffffffffffffffffffffffffffffffffffff811115612bbc57612bbb6127f2565b5b92915050565b60805160a05160c05160e051610100516101205161014051614d4d612c1c6000396000611ce201526000611ca70152600061248401526000612463015260006118140152600061186a015260006118930152614d4d6000f3fe608060405234801561001057600080fd5b50600436106102275760003560e01c806377d2300e11610130578063a217fddf116100b8578063d505accf1161007c578063d505accf146106f6578063d547741f14610712578063dd62ed3e1461072e578063f1127ed81461075e578063f404e9461461078e57610227565b8063a217fddf14610640578063a9059cbb1461065e578063ad5dff731461068e578063c3cda520146106be578063cc561460146106da57610227565b806391b29695116100ff57806391b296951461057457806391d14854146105a457806391ddadf4146105d457806395d89b41146105f25780639ab24eb01461061057610227565b806377d2300e146104d25780637ecebe00146104f057806384b0196e146105205780638e539e8c1461054457610227565b8063313ce567116101b35780634bf5d7e9116101825780634bf5d7e914610408578063587cde1e146104265780635c19a95c146104565780636fcfff451461047257806370a08231146104a257610227565b8063313ce567146103805780633644e5151461039e57806336568abe146103bc5780633a46b1a8146103d857610227565b806318160ddd116101fa57806318160ddd146102c857806323b872dd146102e657806323cbe1f314610316578063248a9ca3146103345780632f2ff15d1461036457610227565b806301ffc9a71461022c57806305db2f411461025c57806306fdde031461027a578063095ea7b314610298575b600080fd5b61024660048036038101906102419190613c7c565b6107aa565b6040516102539190613cc4565b60405180910390f35b610264610824565b6040516102719190613cf8565b60405180910390f35b610282610848565b60405161028f9190613da3565b60405180910390f35b6102b260048036038101906102ad9190613e59565b6108da565b6040516102bf9190613cc4565b60405180910390f35b6102d06108fd565b6040516102dd9190613ea8565b60405180910390f35b61030060048036038101906102fb9190613ec3565b610907565b60405161030d9190613cc4565b60405180910390f35b61031e610936565b60405161032b9190613ea8565b60405180910390f35b61034e60048036038101906103499190613f42565b61093c565b60405161035b9190613cf8565b60405180910390f35b61037e60048036038101906103799190613f6f565b61095c565b005b61038861097e565b6040516103959190613fcb565b60405180910390f35b6103a6610987565b6040516103b39190613cf8565b60405180910390f35b6103d660048036038101906103d19190613f6f565b610996565b005b6103f260048036038101906103ed9190613e59565b610a11565b6040516103ff9190613ea8565b60405180910390f35b610410610a90565b60405161041d9190613da3565b60405180910390f35b610440600480360381019061043b9190613fe6565b610acd565b60405161044d9190614022565b60405180910390f35b610470600480360381019061046b9190613fe6565b610b36565b005b61048c60048036038101906104879190613fe6565b610b50565b604051610499919061405c565b60405180910390f35b6104bc60048036038101906104b79190613fe6565b610b62565b6040516104c99190613ea8565b60405180910390f35b6104da610baa565b6040516104e79190613ea8565b60405180910390f35b61050a60048036038101906105059190613fe6565b610bb0565b6040516105179190613ea8565b60405180910390f35b610528610bc2565b60405161053b9796959493929190614170565b60405180910390f35b61055e600480360381019061055991906141f4565b610c6c565b60405161056b9190613ea8565b60405180910390f35b61058e60048036038101906105899190613fe6565b610cad565b60405161059b9190613cc4565b60405180910390f35b6105be60048036038101906105b99190613f6f565b610d03565b6040516105cb9190613cc4565b60405180910390f35b6105dc610d6e565b6040516105e99190614242565b60405180910390f35b6105fa610d76565b6040516106079190613da3565b60405180910390f35b61062a60048036038101906106259190613fe6565b610e08565b6040516106379190613ea8565b60405180910390f35b610648610e74565b6040516106559190613cf8565b60405180910390f35b61067860048036038101906106739190613e59565b610e7b565b6040516106859190613cc4565b60405180910390f35b6106a860048036038101906106a39190613fe6565b610e9e565b6040516106b59190613cc4565b60405180910390f35b6106d860048036038101906106d39190614289565b610ef4565b005b6106f460048036038101906106ef9190614342565b610fba565b005b610710600480360381019061070b9190614382565b6110fa565b005b61072c60048036038101906107279190613f6f565b611242565b005b61074860048036038101906107439190614424565b611264565b6040516107559190613ea8565b60405180910390f35b61077860048036038101906107739190614490565b6112eb565b6040516107859190614543565b60405180910390f35b6107a860048036038101906107a391906145c3565b611305565b005b60007f7965db0b000000000000000000000000000000000000000000000000000000007bffffffffffffffffffffffffffffffffffffffffffffffffffffffff1916827bffffffffffffffffffffffffffffffffffffffffffffffffffffffff1916148061081d575061081c826114fd565b5b9050919050565b7f6c0757dc3e6b28b2580c03fd9e96c274acf4f99d91fbec9b418fa1d70604ff1c81565b60606003805461085790614652565b80601f016020809104026020016040519081016040528092919081815260200182805461088390614652565b80156108d05780601f106108a5576101008083540402835291602001916108d0565b820191906000526020600020905b8154815290600101906020018083116108b357829003601f168201915b5050505050905090565b6000806108e5611567565b90506108f281858561156f565b600191505092915050565b6000600254905090565b600080610912611567565b905061091f858285611581565b61092a858585611616565b60019150509392505050565b600d5481565b6000600b6000838152602001908152602001600020600101549050919050565b6109658261093c565b61096e8161170a565b610978838361171e565b50505050565b60006012905090565b6000610991611810565b905090565b61099e611567565b73ffffffffffffffffffffffffffffffffffffffff168173ffffffffffffffffffffffffffffffffffffffff1614610a02576040517f6697b23200000000000000000000000000000000000000000000000000000000815260040160405180910390fd5b610a0c82826118c7565b505050565b6000610a6c610a1f836119ba565b600960008673ffffffffffffffffffffffffffffffffffffffff1673ffffffffffffffffffffffffffffffffffffffff168152602001908152602001600020611a2690919063ffffffff16565b79ffffffffffffffffffffffffffffffffffffffffffffffffffff16905092915050565b60606040518060400160405280600e81526020017f6d6f64653d74696d657374616d70000000000000000000000000000000000000815250905090565b6000600860008373ffffffffffffffffffffffffffffffffffffffff1673ffffffffffffffffffffffffffffffffffffffff16815260200190815260200160002060009054906101000a900473ffffffffffffffffffffffffffffffffffffffff169050919050565b6000610b40611567565b9050610b4c8183611b20565b5050565b6000610b5b82611c34565b9050919050565b60008060008373ffffffffffffffffffffffffffffffffffffffff1673ffffffffffffffffffffffffffffffffffffffff168152602001908152602001600020549050919050565b600c5481565b6000610bbb82611c8c565b9050919050565b600060608060008060006060610bd6611c9e565b610bde611cd9565b46306000801b600067ffffffffffffffff811115610bff57610bfe614683565b5b604051908082528060200260200182016040528015610c2d5781602001602082028036833780820191505090505b507f0f00000000000000000000000000000000000000000000000000000000000000959493929190965096509650965096509650965090919293949596565b6000610c8a610c7a836119ba565b600a611a2690919063ffffffff16565b79ffffffffffffffffffffffffffffffffffffffffffffffffffff169050919050565b6000601160008373ffffffffffffffffffffffffffffffffffffffff1673ffffffffffffffffffffffffffffffffffffffff16815260200190815260200160002060009054906101000a900460ff169050919050565b6000600b600084815260200190815260200160002060000160008373ffffffffffffffffffffffffffffffffffffffff1673ffffffffffffffffffffffffffffffffffffffff16815260200190815260200160002060009054906101000a900460ff16905092915050565b600042905090565b606060048054610d8590614652565b80601f0160208091040260200160405190810160405280929190818152602001828054610db190614652565b8015610dfe5780601f10610dd357610100808354040283529160200191610dfe565b820191906000526020600020905b815481529060010190602001808311610de157829003601f168201915b5050505050905090565b6000610e51600960008473ffffffffffffffffffffffffffffffffffffffff1673ffffffffffffffffffffffffffffffffffffffff168152602001908152602001600020611d14565b79ffffffffffffffffffffffffffffffffffffffffffffffffffff169050919050565b6000801b81565b600080610e86611567565b9050610e93818585611616565b600191505092915050565b6000601060008373ffffffffffffffffffffffffffffffffffffffff1673ffffffffffffffffffffffffffffffffffffffff16815260200190815260200160002060009054906101000a900460ff169050919050565b83421115610f3957836040517f4683af0e000000000000000000000000000000000000000000000000000000008152600401610f309190613ea8565b60405180910390fd5b6000610f9b610f937fe48329057bfd03d55e49b547132e39cffd9c1820ad7b9d4c5307691425d15adf898989604051602001610f7894939291906146b2565b60405160208183030381529060405280519060200120611d7c565b858585611d96565b9050610fa78187611dc6565b610fb18188611b20565b50505050505050565b6000801b610fc78161170a565b600073ffffffffffffffffffffffffffffffffffffffff168373ffffffffffffffffffffffffffffffffffffffff16036110395760006040517f79698f720000000000000000000000000000000000000000000000000000000081526004016110309190614022565b60405180910390fd5b81601160008573ffffffffffffffffffffffffffffffffffffffff1673ffffffffffffffffffffffffffffffffffffffff16815260200190815260200160002060006101000a81548160ff0219169083151502179055503373ffffffffffffffffffffffffffffffffffffffff168373ffffffffffffffffffffffffffffffffffffffff167f1059c1033394471c696a760dbdada30c17397908040ca9b17c7a8a3fb8794845846040516110ed9190613cc4565b60405180910390a3505050565b8342111561113f57836040517f627913020000000000000000000000000000000000000000000000000000000081526004016111369190613ea8565b60405180910390fd5b60007f6e71edae12b1b97f4d1f60370fef10105fa2faae0126114a169c64845d6126c988888861116e8c611e1e565b89604051602001611184969594939291906146f7565b60405160208183030381529060405280519060200120905060006111a782611d7c565b905060006111b782878787611d96565b90508973ffffffffffffffffffffffffffffffffffffffff168173ffffffffffffffffffffffffffffffffffffffff161461122b57808a6040517f4b800e46000000000000000000000000000000000000000000000000000000008152600401611222929190614758565b60405180910390fd5b6112368a8a8a61156f565b50505050505050505050565b61124b8261093c565b6112548161170a565b61125e83836118c7565b50505050565b6000600160008473ffffffffffffffffffffffffffffffffffffffff1673ffffffffffffffffffffffffffffffffffffffff16815260200190815260200160002060008373ffffffffffffffffffffffffffffffffffffffff1673ffffffffffffffffffffffffffffffffffffffff16815260200190815260200160002054905092915050565b6112f3613b9e565b6112fd8383611e75565b905092915050565b6000801b6113128161170a565b6000848490509050600081036113605760016040517f4e2ef70800000000000000000000000000000000000000000000000000000000815260040161135791906147c6565b60405180910390fd5b60148111156113a9576014816040517fe03711180000000000000000000000000000000000000000000000000000000081526004016113a092919061481c565b60405180910390fd5b60005b818110156114c95783601060008888858181106113cc576113cb614845565b5b90506020020160208101906113e19190613fe6565b73ffffffffffffffffffffffffffffffffffffffff1673ffffffffffffffffffffffffffffffffffffffff16815260200190815260200160002060006101000a81548160ff0219169083151502179055503373ffffffffffffffffffffffffffffffffffffffff1686868381811061145c5761145b614845565b5b90506020020160208101906114719190613fe6565b73ffffffffffffffffffffffffffffffffffffffff167fd9061660afe8267f334139e10a3be2345553bab161cf922c9c8275bd446bb94a866040516114b69190613cc4565b60405180910390a38060010190506113ac565b505050505050565b600081836114df91906148a3565b905092915050565b600081836114f591906148f1565b905092915050565b60007f01ffc9a7000000000000000000000000000000000000000000000000000000007bffffffffffffffffffffffffffffffffffffffffffffffffffffffff1916827bffffffffffffffffffffffffffffffffffffffffffffffffffffffff1916149050919050565b600033905090565b61157c8383836001611ed6565b505050565b600061158d8484611264565b90507fffffffffffffffffffffffffffffffffffffffffffffffffffffffffffffffff8110156116105781811015611600578281836040517ffb8f41b20000000000000000000000000000000000000000000000000000000081526004016115f79392919061493f565b60405180910390fd5b61160f84848484036000611ed6565b5b50505050565b600073ffffffffffffffffffffffffffffffffffffffff168373ffffffffffffffffffffffffffffffffffffffff16036116885760006040517f96c6fd1e00000000000000000000000000000000000000000000000000000000815260040161167f9190614022565b60405180910390fd5b600073ffffffffffffffffffffffffffffffffffffffff168273ffffffffffffffffffffffffffffffffffffffff16036116fa5760006040517fec442f050000000000000000000000000000000000000000000000000000000081526004016116f19190614022565b60405180910390fd5b6117058383836120ad565b505050565b61171b81611716611567565b6123ed565b50565b600061172a8383610d03565b611805576001600b600085815260200190815260200160002060000160008473ffffffffffffffffffffffffffffffffffffffff1673ffffffffffffffffffffffffffffffffffffffff16815260200190815260200160002060006101000a81548160ff0219169083151502179055506117a2611567565b73ffffffffffffffffffffffffffffffffffffffff168273ffffffffffffffffffffffffffffffffffffffff16847f2f8788117e7eff1d82e926ec794901d17c78024a50270940304540a733656f0d60405160405180910390a46001905061180a565b600090505b92915050565b60007f000000000000000000000000000000000000000000000000000000000000000073ffffffffffffffffffffffffffffffffffffffff163073ffffffffffffffffffffffffffffffffffffffff1614801561188c57507f000000000000000000000000000000000000000000000000000000000000000046145b156118b9577f000000000000000000000000000000000000000000000000000000000000000090506118c4565b6118c161243e565b90505b90565b60006118d38383610d03565b156119af576000600b600085815260200190815260200160002060000160008473ffffffffffffffffffffffffffffffffffffffff1673ffffffffffffffffffffffffffffffffffffffff16815260200190815260200160002060006101000a81548160ff02191690831515021790555061194c611567565b73ffffffffffffffffffffffffffffffffffffffff168273ffffffffffffffffffffffffffffffffffffffff16847ff6391f5c32d9c69d2a47ea670b442974b53935d1edc7fd64eb21e047a839171b60405160405180910390a4600190506119b4565b600090505b92915050565b6000806119c5610d6e565b90508065ffffffffffff168310611a155782816040517fecd3f81e000000000000000000000000000000000000000000000000000000008152600401611a0c929190614976565b60405180910390fd5b611a1e836124d4565b915050919050565b600080836000018054905090506000808290506005831115611aae576000611a4d8461252e565b84611a58919061499f565b9050611a6787600001826126cb565b60000160009054906101000a900465ffffffffffff1665ffffffffffff168665ffffffffffff161015611a9c57809150611aac565b600181611aa991906149d3565b92505b505b6000611abf876000018785856126e0565b905060008114611b1157611ae287600001600183611add919061499f565b6126cb565b60000160069054906101000a900479ffffffffffffffffffffffffffffffffffffffffffffffffffff16611b14565b60005b94505050505092915050565b6000611b2b83610acd565b905081600860008573ffffffffffffffffffffffffffffffffffffffff1673ffffffffffffffffffffffffffffffffffffffff16815260200190815260200160002060006101000a81548173ffffffffffffffffffffffffffffffffffffffff021916908373ffffffffffffffffffffffffffffffffffffffff1602179055508173ffffffffffffffffffffffffffffffffffffffff168173ffffffffffffffffffffffffffffffffffffffff168473ffffffffffffffffffffffffffffffffffffffff167f3134e8a2e6d97e929a7e54011ea5485d7d196dd5f0ba4d4ef95803e8e3fc257f60405160405180910390a4611c2f8183611c2a86612759565b61276b565b505050565b6000611c85611c80600960008573ffffffffffffffffffffffffffffffffffffffff1673ffffffffffffffffffffffffffffffffffffffff1681526020019081526020016000206129e4565b6129f5565b9050919050565b6000611c9782612a4d565b9050919050565b6060611cd460057f0000000000000000000000000000000000000000000000000000000000000000612a9690919063ffffffff16565b905090565b6060611d0f60067f0000000000000000000000000000000000000000000000000000000000000000612a9690919063ffffffff16565b905090565b6000808260000180549050905060008114611d7157611d4283600001600183611d3d919061499f565b6126cb565b60000160069054906101000a900479ffffffffffffffffffffffffffffffffffffffffffffffffffff16611d74565b60005b915050919050565b6000611d8f611d89611810565b83612b46565b9050919050565b600080600080611da888888888612b87565b925092509250611db88282612c7b565b829350505050949350505050565b6000611dd183611e1e565b9050808214611e195782816040517f752d88c0000000000000000000000000000000000000000000000000000000008152600401611e10929190614a07565b60405180910390fd5b505050565b6000600760008373ffffffffffffffffffffffffffffffffffffffff1673ffffffffffffffffffffffffffffffffffffffff1681526020019081526020016000206000815480929190600101919050559050919050565b611e7d613b9e565b611ece82600960008673ffffffffffffffffffffffffffffffffffffffff1673ffffffffffffffffffffffffffffffffffffffff168152602001908152602001600020612ddf90919063ffffffff16565b905092915050565b600073ffffffffffffffffffffffffffffffffffffffff168473ffffffffffffffffffffffffffffffffffffffff1603611f485760006040517fe602df05000000000000000000000000000000000000000000000000000000008152600401611f3f9190614022565b60405180910390fd5b600073ffffffffffffffffffffffffffffffffffffffff168373ffffffffffffffffffffffffffffffffffffffff1603611fba5760006040517f94280d62000000000000000000000000000000000000000000000000000000008152600401611fb19190614022565b60405180910390fd5b81600160008673ffffffffffffffffffffffffffffffffffffffff1673ffffffffffffffffffffffffffffffffffffffff16815260200190815260200160002060008573ffffffffffffffffffffffffffffffffffffffff1673ffffffffffffffffffffffffffffffffffffffff1681526020019081526020016000208190555080156120a7578273ffffffffffffffffffffffffffffffffffffffff168473ffffffffffffffffffffffffffffffffffffffff167f8c5be1e5ebec7d5bd14f71427d1e84f3dd0314c0f7b2291e5b200ac8c7c3b9258460405161209e9190613ea8565b60405180910390a35b50505050565b600073ffffffffffffffffffffffffffffffffffffffff168373ffffffffffffffffffffffffffffffffffffffff1614806121145750600073ffffffffffffffffffffffffffffffffffffffff168273ffffffffffffffffffffffffffffffffffffffff16145b8061211f5750600081145b156121345761212f838383612eb4565b6123e8565b6000612141848484612f65565b90506000600e8054806020026020016040519081016040528092919081815260200182805480156121c757602002820191906000526020600020905b8160009054906101000a900473ffffffffffffffffffffffffffffffffffffffff1673ffffffffffffffffffffffffffffffffffffffff168152602001906001019080831161217d575b505050505090508160000151925060008260400151519050600081111561230a5781518114612230578082516040517f90920084000000000000000000000000000000000000000000000000000000008152600401612227929190614a30565b60405180910390fd5b60005b818110156123085760008382815181106122505761224f614845565b5b6020026020010151905060008560400151838151811061227357612272614845565b5b6020026020010151905060008111156122fb57612291898383612eb4565b8173ffffffffffffffffffffffffffffffffffffffff16866060015173ffffffffffffffffffffffffffffffffffffffff167faaa40a232aaf133fdd28f3485f6fdd163514cfadbffa981f3610f42398efe34b836040516122f29190613ea8565b60405180910390a35b5050806001019050612233565b505b60008360200151111561237c5761232586846020015161334b565b826060015173ffffffffffffffffffffffffffffffffffffffff167fcc16f5dbb4873280815c1ee09dbd06736cffcc184412cf7a71a0fdb75d397ca584602001516040516123739190613ea8565b60405180910390a25b612387868686612eb4565b61239085610cad565b1561239d575050506123e8565b600073ffffffffffffffffffffffffffffffffffffffff166123be86610acd565b73ffffffffffffffffffffffffffffffffffffffff16036123e4576123e38586611b20565b5b5050505b505050565b6123f78282610d03565b61243a5780826040517fe2517d3f000000000000000000000000000000000000000000000000000000008152600401612431929190614a59565b60405180910390fd5b5050565b60007f8b73c3c69bb8fe3d512ecc4cf759cc79239f7b179b0ffacaa9a75d522b39400f7f00000000000000000000000000000000000000000000000000000000000000007f000000000000000000000000000000000000000000000000000000000000000046306040516020016124b9959493929190614a82565b60405160208183030381529060405280519060200120905090565b600065ffffffffffff8016821115612526576030826040517f6dfcc65000000000000000000000000000000000000000000000000000000000815260040161251d929190614b10565b60405180910390fd5b819050919050565b600060018211612540578190506126c6565b6000829050600060019050700100000000000000000000000000000000821061257257608082901c9150604081901b90505b68010000000000000000821061259157604082901c9150602081901b90505b64010000000082106125ac57602082901c9150601081901b90505b6201000082106125c557601082901c9150600881901b90505b61010082106125dd57600882901c9150600481901b90505b601082106125f457600482901c9150600281901b90505b6004821061260457600181901b90505b600181600302901c905060018185816126205761261f614b39565b5b048201901c9050600181858161263957612638614b39565b5b048201901c9050600181858161265257612651614b39565b5b048201901c9050600181858161266b5761266a614b39565b5b048201901c9050600181858161268457612683614b39565b5b048201901c9050600181858161269d5761269c614b39565b5b048201901c90506126bf8185816126b7576126b6614b39565b5b0482116133cd565b8103925050505b919050565b60008260005281602060002001905092915050565b60005b8183101561274e5760006126f784846133d9565b90508465ffffffffffff1661270c87836126cb565b60000160009054906101000a900465ffffffffffff1665ffffffffffff16111561273857809250612748565b60018161274591906149d3565b93505b506126e3565b819050949350505050565b600061276482610b62565b9050919050565b8173ffffffffffffffffffffffffffffffffffffffff168373ffffffffffffffffffffffffffffffffffffffff16141580156127a75750600081115b156129df57600073ffffffffffffffffffffffffffffffffffffffff168373ffffffffffffffffffffffffffffffffffffffff16146128c557600080612836600960008773ffffffffffffffffffffffffffffffffffffffff1673ffffffffffffffffffffffffffffffffffffffff1681526020019081526020016000206114e7612831866133ff565b61346d565b79ffffffffffffffffffffffffffffffffffffffffffffffffffff16915079ffffffffffffffffffffffffffffffffffffffffffffffffffff1691508473ffffffffffffffffffffffffffffffffffffffff167fdec2bacdd2f05b59de34da9b523dff8be42e5e38e818c82fdb0bae774387a72483836040516128ba929190614a30565b60405180910390a250505b600073ffffffffffffffffffffffffffffffffffffffff168273ffffffffffffffffffffffffffffffffffffffff16146129de5760008061294f600960008673ffffffffffffffffffffffffffffffffffffffff1673ffffffffffffffffffffffffffffffffffffffff1681526020019081526020016000206114d161294a866133ff565b61346d565b79ffffffffffffffffffffffffffffffffffffffffffffffffffff16915079ffffffffffffffffffffffffffffffffffffffffffffffffffff1691508373ffffffffffffffffffffffffffffffffffffffff167fdec2bacdd2f05b59de34da9b523dff8be42e5e38e818c82fdb0bae774387a72483836040516129d3929190614a30565b60405180910390a250505b5b505050565b600081600001805490509050919050565b600063ffffffff8016821115612a45576020826040517f6dfcc650000000000000000000000000000000000000000000000000000000008152600401612a3c929190614ba3565b60405180910390fd5b819050919050565b6000600760008373ffffffffffffffffffffffffffffffffffffffff1673ffffffffffffffffffffffffffffffffffffffff168152602001908152602001600020549050919050565b606060ff60001b8314612ab357612aac836134ad565b9050612b40565b818054612abf90614652565b80601f0160208091040260200160405190810160405280929190818152602001828054612aeb90614652565b8015612b385780601f10612b0d57610100808354040283529160200191612b38565b820191906000526020600020905b815481529060010190602001808311612b1b57829003601f168201915b505050505090505b92915050565b60006040517f190100000000000000000000000000000000000000000000000000000000000081528360028201528260228201526042812091505092915050565b60008060007f7fffffffffffffffffffffffffffffff5d576e7357a4501ddfe92f46681b20a08460001c1115612bc7576000600385925092509250612c71565b600060018888888860405160008152602001604052604051612bec9493929190614bcc565b6020604051602081039080840390855afa158015612c0e573d6000803e3d6000fd5b505050602060405103519050600073ffffffffffffffffffffffffffffffffffffffff168173ffffffffffffffffffffffffffffffffffffffff1603612c6257600060016000801b93509350935050612c71565b8060008060001b935093509350505b9450945094915050565b60006003811115612c8f57612c8e614c11565b5b826003811115612ca257612ca1614c11565b5b0315612ddb5760016003811115612cbc57612cbb614c11565b5b826003811115612ccf57612cce614c11565b5b03612d06576040517ff645eedf00000000000000000000000000000000000000000000000000000000815260040160405180910390fd5b60026003811115612d1a57612d19614c11565b5b826003811115612d2d57612d2c614c11565b5b03612d72578060001c6040517ffce698f7000000000000000000000000000000000000000000000000000000008152600401612d699190613ea8565b60405180910390fd5b600380811115612d8557612d84614c11565b5b826003811115612d9857612d97614c11565b5b03612dda57806040517fd78bce0c000000000000000000000000000000000000000000000000000000008152600401612dd19190613cf8565b60405180910390fd5b5b5050565b612de7613b9e565b826000018263ffffffff1681548110612e0357612e02614845565b5b906000526020600020016040518060400160405290816000820160009054906101000a900465ffffffffffff1665ffffffffffff1665ffffffffffff1681526020016000820160069054906101000a900479ffffffffffffffffffffffffffffffffffffffffffffffffffff1679ffffffffffffffffffffffffffffffffffffffffffffffffffff1679ffffffffffffffffffffffffffffffffffffffffffffffffffff1681525050905092915050565b612ebf838383613521565b600073ffffffffffffffffffffffffffffffffffffffff168373ffffffffffffffffffffffffffffffffffffffff1603612f55576000612efd6108fd565b90506000612f09613746565b905080821115612f525781816040517f1cb15d26000000000000000000000000000000000000000000000000000000008152600401612f49929190614a30565b60405180910390fd5b50505b612f6083838361376a565b505050565b612f6d613bdc565b612f7684610cad565b1561315357612f8483610e9e565b80612f9157506000600c54145b15612fa55781816000018181525050613344565b82816060019073ffffffffffffffffffffffffffffffffffffffff16908173ffffffffffffffffffffffffffffffffffffffff16815250506000612710600c5484612ff09190614c40565b612ffa9190614c82565b90506000600e8054905090506000810361303457818461301a919061499f565b836000018181525050818360200181815250505050613344565b6000808267ffffffffffffffff81111561305157613050614683565b5b60405190808252806020026020018201604052801561307f5781602001602082028036833780820191505090505b50905060005b8381101561311657612710600f82815481106130a4576130a3614845565b5b9060005260206000200154866130ba9190614c40565b6130c49190614c82565b8282815181106130d7576130d6614845565b5b6020026020010181815250508181815181106130f6576130f5614845565b5b60200260200101518361310991906149d3565b9250806001019050613085565b508386613123919061499f565b8560000181815250508184613138919061499f565b85602001818152505080856040018190525050505050613344565b61315c83610cad565b156133395761316a84610e9e565b8061317757506000600d54145b1561318b5781816000018181525050613344565b83816060019073ffffffffffffffffffffffffffffffffffffffff16908173ffffffffffffffffffffffffffffffffffffffff16815250506000612710600d54846131d69190614c40565b6131e09190614c82565b90506000600e8054905090506000810361321a578184613200919061499f565b836000018181525050818360200181815250505050613344565b6000808267ffffffffffffffff81111561323757613236614683565b5b6040519080825280602002602001820160405280156132655781602001602082028036833780820191505090505b50905060005b838110156132fc57612710600f828154811061328a57613289614845565b5b9060005260206000200154866132a09190614c40565b6132aa9190614c82565b8282815181106132bd576132bc614845565b5b6020026020010181815250508181815181106132dc576132db614845565b5b6020026020010151836132ef91906149d3565b925080600101905061326b565b508386613309919061499f565b856000018181525050818461331e919061499f565b85602001818152505080856040018190525050505050613344565b818160000181815250505b9392505050565b600073ffffffffffffffffffffffffffffffffffffffff168273ffffffffffffffffffffffffffffffffffffffff16036133bd5760006040517f96c6fd1e0000000000000000000000000000000000000000000000000000000081526004016133b49190614022565b60405180910390fd5b6133c9826000836120ad565b5050565b60008115159050919050565b600060028284186133ea9190614c82565b8284166133f791906149d3565b905092915050565b600079ffffffffffffffffffffffffffffffffffffffffffffffffffff80168211156134655760d0826040517f6dfcc65000000000000000000000000000000000000000000000000000000000815260040161345c929190614cee565b60405180910390fd5b819050919050565b6000806134a161347b610d6e565b61349161348788611d14565b868863ffffffff16565b876138249092919063ffffffff16565b91509150935093915050565b606060006134ba83613841565b90506000602067ffffffffffffffff8111156134d9576134d8614683565b5b6040519080825280601f01601f19166020018201604052801561350b5781602001600182028036833780820191505090505b5090508181528360208201528092505050919050565b600073ffffffffffffffffffffffffffffffffffffffff168373ffffffffffffffffffffffffffffffffffffffff160361357357806002600082825461356791906149d3565b92505081905550613646565b60008060008573ffffffffffffffffffffffffffffffffffffffff1673ffffffffffffffffffffffffffffffffffffffff168152602001908152602001600020549050818110156135ff578381836040517fe450d38c0000000000000000000000000000000000000000000000000000000081526004016135f69392919061493f565b60405180910390fd5b8181036000808673ffffffffffffffffffffffffffffffffffffffff1673ffffffffffffffffffffffffffffffffffffffff16815260200190815260200160002081905550505b600073ffffffffffffffffffffffffffffffffffffffff168273ffffffffffffffffffffffffffffffffffffffff160361368f57806002600082825403925050819055506136dc565b806000808473ffffffffffffffffffffffffffffffffffffffff1673ffffffffffffffffffffffffffffffffffffffff168152602001908152602001600020600082825401925050819055505b8173ffffffffffffffffffffffffffffffffffffffff168373ffffffffffffffffffffffffffffffffffffffff167fddf252ad1be2c89b69c2b068fc378daa952ba7f163c4a11628f55a4df523b3ef836040516137399190613ea8565b60405180910390a3505050565b600079ffffffffffffffffffffffffffffffffffffffffffffffffffff8016905090565b600073ffffffffffffffffffffffffffffffffffffffff168373ffffffffffffffffffffffffffffffffffffffff16036137b7576137b4600a6114d16137af846133ff565b61346d565b50505b600073ffffffffffffffffffffffffffffffffffffffff168273ffffffffffffffffffffffffffffffffffffffff160361380457613801600a6114e76137fc846133ff565b61346d565b50505b61381f61381084610acd565b61381984610acd565b8361276b565b505050565b600080613835856000018585613891565b91509150935093915050565b60008060ff8360001c169050601f811115613888576040517fb3512b0c00000000000000000000000000000000000000000000000000000000815260040160405180910390fd5b80915050919050565b6000806000858054905090506000811115613aae5760006138be876001846138b9919061499f565b6126cb565b905060008160000160009054906101000a900465ffffffffffff16905060008260000160069054906101000a900479ffffffffffffffffffffffffffffffffffffffffffffffffffff1690508765ffffffffffff168265ffffffffffff161115613954576040517f2520601d00000000000000000000000000000000000000000000000000000000815260040160405180910390fd5b8765ffffffffffff168265ffffffffffff16036139bf57868360000160066101000a81548179ffffffffffffffffffffffffffffffffffffffffffffffffffff021916908379ffffffffffffffffffffffffffffffffffffffffffffffffffff160217905550613a9f565b8860405180604001604052808a65ffffffffffff1681526020018979ffffffffffffffffffffffffffffffffffffffffffffffffffff168152509080600181540180825580915050600190039060005260206000200160009091909190915060008201518160000160006101000a81548165ffffffffffff021916908365ffffffffffff16021790555060208201518160000160066101000a81548179ffffffffffffffffffffffffffffffffffffffffffffffffffff021916908379ffffffffffffffffffffffffffffffffffffffffffffffffffff16021790555050505b80879550955050505050613b96565b8560405180604001604052808765ffffffffffff1681526020018679ffffffffffffffffffffffffffffffffffffffffffffffffffff168152509080600181540180825580915050600190039060005260206000200160009091909190915060008201518160000160006101000a81548165ffffffffffff021916908365ffffffffffff16021790555060208201518160000160066101000a81548179ffffffffffffffffffffffffffffffffffffffffffffffffffff021916908379ffffffffffffffffffffffffffffffffffffffffffffffffffff160217905550505060008492509250505b935093915050565b6040518060400160405280600065ffffffffffff168152602001600079ffffffffffffffffffffffffffffffffffffffffffffffffffff1681525090565b6040518060800160405280600081526020016000815260200160608152602001600073ffffffffffffffffffffffffffffffffffffffff1681525090565b600080fd5b600080fd5b60007fffffffff0000000000000000000000000000000000000000000000000000000082169050919050565b613c5981613c24565b8114613c6457600080fd5b50565b600081359050613c7681613c50565b92915050565b600060208284031215613c9257613c91613c1a565b5b6000613ca084828501613c67565b91505092915050565b60008115159050919050565b613cbe81613ca9565b82525050565b6000602082019050613cd96000830184613cb5565b92915050565b6000819050919050565b613cf281613cdf565b82525050565b6000602082019050613d0d6000830184613ce9565b92915050565b600081519050919050565b600082825260208201905092915050565b60005b83811015613d4d578082015181840152602081019050613d32565b60008484015250505050565b6000601f19601f8301169050919050565b6000613d7582613d13565b613d7f8185613d1e565b9350613d8f818560208601613d2f565b613d9881613d59565b840191505092915050565b60006020820190508181036000830152613dbd8184613d6a565b905092915050565b600073ffffffffffffffffffffffffffffffffffffffff82169050919050565b6000613df082613dc5565b9050919050565b613e0081613de5565b8114613e0b57600080fd5b50565b600081359050613e1d81613df7565b92915050565b6000819050919050565b613e3681613e23565b8114613e4157600080fd5b50565b600081359050613e5381613e2d565b92915050565b60008060408385031215613e7057613e6f613c1a565b5b6000613e7e85828601613e0e565b9250506020613e8f85828601613e44565b9150509250929050565b613ea281613e23565b82525050565b6000602082019050613ebd6000830184613e99565b92915050565b600080600060608486031215613edc57613edb613c1a565b5b6000613eea86828701613e0e565b9350506020613efb86828701613e0e565b9250506040613f0c86828701613e44565b9150509250925092565b613f1f81613cdf565b8114613f2a57600080fd5b50565b600081359050613f3c81613f16565b92915050565b600060208284031215613f5857613f57613c1a565b5b6000613f6684828501613f2d565b91505092915050565b60008060408385031215613f8657613f85613c1a565b5b6000613f9485828601613f2d565b9250506020613fa585828601613e0e565b9150509250929050565b600060ff82169050919050565b613fc581613faf565b82525050565b6000602082019050613fe06000830184613fbc565b92915050565b600060208284031215613ffc57613ffb613c1a565b5b600061400a84828501613e0e565b91505092915050565b61401c81613de5565b82525050565b60006020820190506140376000830184614013565b92915050565b600063ffffffff82169050919050565b6140568161403d565b82525050565b6000602082019050614071600083018461404d565b92915050565b60007fff0000000000000000000000000000000000000000000000000000000000000082169050919050565b6140ac81614077565b82525050565b600081519050919050565b600082825260208201905092915050565b6000819050602082019050919050565b6140e781613e23565b82525050565b60006140f983836140de565b60208301905092915050565b6000602082019050919050565b600061411d826140b2565b61412781856140bd565b9350614132836140ce565b8060005b8381101561416357815161414a88826140ed565b975061415583614105565b925050600181019050614136565b5085935050505092915050565b600060e082019050614185600083018a6140a3565b81810360208301526141978189613d6a565b905081810360408301526141ab8188613d6a565b90506141ba6060830187613e99565b6141c76080830186614013565b6141d460a0830185613ce9565b81810360c08301526141e68184614112565b905098975050505050505050565b60006020828403121561420a57614209613c1a565b5b600061421884828501613e44565b91505092915050565b600065ffffffffffff82169050919050565b61423c81614221565b82525050565b60006020820190506142576000830184614233565b92915050565b61426681613faf565b811461427157600080fd5b50565b6000813590506142838161425d565b92915050565b60008060008060008060c087890312156142a6576142a5613c1a565b5b60006142b489828a01613e0e565b96505060206142c589828a01613e44565b95505060406142d689828a01613e44565b94505060606142e789828a01614274565b93505060806142f889828a01613f2d565b92505060a061430989828a01613f2d565b9150509295509295509295565b61431f81613ca9565b811461432a57600080fd5b50565b60008135905061433c81614316565b92915050565b6000806040838503121561435957614358613c1a565b5b600061436785828601613e0e565b92505060206143788582860161432d565b9150509250929050565b600080600080600080600060e0888a0312156143a1576143a0613c1a565b5b60006143af8a828b01613e0e565b97505060206143c08a828b01613e0e565b96505060406143d18a828b01613e44565b95505060606143e28a828b01613e44565b94505060806143f38a828b01614274565b93505060a06144048a828b01613f2d565b92505060c06144158a828b01613f2d565b91505092959891949750929550565b6000806040838503121561443b5761443a613c1a565b5b600061444985828601613e0e565b925050602061445a85828601613e0e565b9150509250929050565b61446d8161403d565b811461447857600080fd5b50565b60008135905061448a81614464565b92915050565b600080604083850312156144a7576144a6613c1a565b5b60006144b585828601613e0e565b92505060206144c68582860161447b565b9150509250929050565b6144d981614221565b82525050565b600079ffffffffffffffffffffffffffffffffffffffffffffffffffff82169050919050565b61450e816144df565b82525050565b60408201600082015161452a60008501826144d0565b50602082015161453d6020850182614505565b50505050565b60006040820190506145586000830184614514565b92915050565b600080fd5b600080fd5b600080fd5b60008083601f8401126145835761458261455e565b5b8235905067ffffffffffffffff8111156145a05761459f614563565b5b6020830191508360208202830111156145bc576145bb614568565b5b9250929050565b6000806000604084860312156145dc576145db613c1a565b5b600084013567ffffffffffffffff8111156145fa576145f9613c1f565b5b6146068682870161456d565b935093505060206146198682870161432d565b9150509250925092565b7f4e487b7100000000000000000000000000000000000000000000000000000000600052602260045260246000fd5b6000600282049050600182168061466a57607f821691505b60208210810361467d5761467c614623565b5b50919050565b7f4e487b7100000000000000000000000000000000000000000000000000000000600052604160045260246000fd5b60006080820190506146c76000830187613ce9565b6146d46020830186614013565b6146e16040830185613e99565b6146ee6060830184613e99565b95945050505050565b600060c08201905061470c6000830189613ce9565b6147196020830188614013565b6147266040830187614013565b6147336060830186613e99565b6147406080830185613e99565b61474d60a0830184613e99565b979650505050505050565b600060408201905061476d6000830185614013565b61477a6020830184614013565b9392505050565b6000819050919050565b6000819050919050565b60006147b06147ab6147a684614781565b61478b565b613e23565b9050919050565b6147c081614795565b82525050565b60006020820190506147db60008301846147b7565b92915050565b6000819050919050565b60006148066148016147fc846147e1565b61478b565b613e23565b9050919050565b614816816147eb565b82525050565b6000604082019050614831600083018561480d565b61483e6020830184613e99565b9392505050565b7f4e487b7100000000000000000000000000000000000000000000000000000000600052603260045260246000fd5b7f4e487b7100000000000000000000000000000000000000000000000000000000600052601160045260246000fd5b60006148ae826144df565b91506148b9836144df565b9250828201905079ffffffffffffffffffffffffffffffffffffffffffffffffffff8111156148eb576148ea614874565b5b92915050565b60006148fc826144df565b9150614907836144df565b9250828203905079ffffffffffffffffffffffffffffffffffffffffffffffffffff81111561493957614938614874565b5b92915050565b60006060820190506149546000830186614013565b6149616020830185613e99565b61496e6040830184613e99565b949350505050565b600060408201905061498b6000830185613e99565b6149986020830184614233565b9392505050565b60006149aa82613e23565b91506149b583613e23565b92508282039050818111156149cd576149cc614874565b5b92915050565b60006149de82613e23565b91506149e983613e23565b9250828201905080821115614a0157614a00614874565b5b92915050565b6000604082019050614a1c6000830185614013565b614a296020830184613e99565b9392505050565b6000604082019050614a456000830185613e99565b614a526020830184613e99565b9392505050565b6000604082019050614a6e6000830185614013565b614a7b6020830184613ce9565b9392505050565b600060a082019050614a976000830188613ce9565b614aa46020830187613ce9565b614ab16040830186613ce9565b614abe6060830185613e99565b614acb6080830184614013565b9695505050505050565b6000819050919050565b6000614afa614af5614af084614ad5565b61478b565b613faf565b9050919050565b614b0a81614adf565b82525050565b6000604082019050614b256000830185614b01565b614b326020830184613e99565b9392505050565b7f4e487b7100000000000000000000000000000000000000000000000000000000600052601260045260246000fd5b6000819050919050565b6000614b8d614b88614b8384614b68565b61478b565b613faf565b9050919050565b614b9d81614b72565b82525050565b6000604082019050614bb86000830185614b94565b614bc56020830184613e99565b9392505050565b6000608082019050614be16000830187613ce9565b614bee6020830186613fbc565b614bfb6040830185613ce9565b614c086060830184613ce9565b95945050505050565b7f4e487b7100000000000000000000000000000000000000000000000000000000600052602160045260246000fd5b6000614c4b82613e23565b9150614c5683613e23565b9250828202614c6481613e23565b91508282048414831517614c7b57614c7a614874565b5b5092915050565b6000614c8d82613e23565b9150614c9883613e23565b925082614ca857614ca7614b39565b5b828204905092915050565b6000819050919050565b6000614cd8614cd3614cce84614cb3565b61478b565b613faf565b9050919050565b614ce881614cbd565b82525050565b6000604082019050614d036000830185614cdf565b614d106020830184613e99565b939250505056fea26469706673582212203a26488a7900105e61eca5c79f2845c29a2c3bf921167fee260eed18c21d945e64736f6c634300081c0033",
  "linkReferences": {},
  "deployedLinkReferences": {}
}